:020000040800F2
:10000000004B0020DD010008ED3C00084F3A0008DD
:10001000E93C00082D0C0008194000080000000011
:100020000000000000000000000000004501000882
:10003000F10D00080000000089010008193D0008CA
:10004000F7010008F7010008F7010008F7010008B0
:10005000F7010008F7010008F7010008F7010008A0
:10006000F7010008F7010008F7010008890D0008F2
:10007000F7010008F7010008F7010008F701000880
:10008000F7010008F701000891090008F7010008CE
:1000900009400008F7010008F7010008F70100080F
:1000A000F7010008CD3D0008F7010008F70100083E
:1000B000F7010008F7010008F7010008F701000840
:1000C000F7010008F7010008F7010008F701000830
:1000D000F7010008F7010008F7010008F701000820
:1000E000F7010008F7010008F7010008F701000810
:1000F000F7010008F7010008F7010008F701000800
:10010000F7010008F7010008F7010008F7010008EF
:10011000F7010008F7010008F7010008F7010008DF
:10012000F7010008F7010008F7010008F7010008CF
:10013000DFF80CD000F09CFB00480047D74C0008CB
:10014000004B0020224B19680868B0E8F00F80F3DC
:100150000988BFF36F8F4FF0000080F311884EF0D5
:100160000D0E70470000000006480068006880F32C
:10017000088862B661B6BFF34F8FBFF36F8F00DFA1
:1001800000BF00BF08ED00E0EFF30980BFF36F8F01
:100190000F4B1A6820E9F00F106008B54FF05000BF
:1001A00080F31188BFF34F8FBFF36F8F05F0A2FC70
:1001B0004FF0000080F31188BDE808401968086816
:1001C000B0E8F00F80F30988BFF36F8F704700BF6E
:1001D00010000020EFF305807047000006488047BC
:1001E00006480047FEE7FEE7FEE7FEE7FEE7FEE71C
:1001F000FEE7FEE7FEE7FEE7CB3D00083101000821
:10020000202A04DB203A21FA02F00021704721FA6B
:1002100002F3D040C2F120029140084319467047D2
:1002200040EA01039B0703D009E008C9121F08C078
:10023000042AFAD203E011F8013B00F8013B521EF8
:10024000F9D27047D2B201E000F8012B491EFBD26F
:1002500070470022F6E710B513460A4604461946D1
:10026000FFF7F0FF204610BDF0B480EA0102D40F82
:100270004200B2EB410F02D20246084611464A0044
:1002800042D0C30DDDB2C1F3C752AD1A202D35DA0D
:10029000C1F3160141F4000204B15242C5F1200637
:1002A00002FA06F12A411044B3EBD05F23D0C4B167
:1002B000012DA0EBC35009DCF0BC4FF0004202EA74
:1002C000C352DBB200F5000000F0EBB8400000F1D3
:1002D000807000EBC350A0F1807040EAD1704900FB
:1002E00009E0490841EAC071A0EBC35000F50000E5
:1002F000400800EBC350F0BC00F0CAB861420122D4
:1003000002EB4101001BF6E7F0BC704781F00041B1
:10031000AAE780F00040A7E780EA010210B502F0EA
:100320000043400022D04A001FD0010E01EB1261B1
:10033000C0F35600C2F3560240F4000042F400023B
:10034000A0FB022000047F39140400D0401C50EAB6
:10035000124001D44000491EC2B20C0604EBD0107A
:10036000401C4008802A02D003E0002010BD20F08D
:100370000100002900DA0020184310BD30B480EAE3
:10038000010202F0004530F0004221F0004013D09D
:1003900090B1C30DD40DC2F31601C0F31600E41AD8
:1003A00041F4000140F400027D34914201D3641C09
:1003B00000E04900002C02DA30BC002070474FF406
:1003C00000000023914201D3891A034340084FEAF9
:1003D0004101F7D151B1914202D14FF0004105E006
:1003E00002D24FF0010101E06FF0010103EBC450B4
:1003F000284430BC00F04CB896230022114600F08F
:1004000050B830B50B46014600202022012409E0F7
:1004100021FA02F59D4205D303FA02F5491B04FABD
:1004200002F52844151EA2F10102F1DC30BD2DE9D0
:10043000F05F0546002092469B4688460646814668
:1004400040241BE02846414647462246FFF7D8FE97
:1004500053465A46C01A914110D3114618462246B7
:1004600000F018FA2D1A67EB01084F4622460120CA
:10047000002100F00FFA17EB00094E41201EA4F1F5
:100480000104DFDC484631462A464346BDE8F09F7A
:100490000029A8BF7047401C490008BF20F0010098
:1004A000704710B4B0FA80FC00FA0CF050EA010476
:1004B00004BF10BC704749B1CCF1200421FA04F408
:1004C00011FA0CF118BF012121430843A3EB0C01E1
:1004D000CB1D4FEA00614FEA102042BF002010BC44
:1004E000704700EBC35010440029A4BF10BC7047F4
:1004F000401C490008BF20F0010010BC70472DE9E6
:10050000FE4F804681EA0300C00F0C46009021F0A8
:10051000004123F00045B8EB0200A94105D2404656
:10052000214690461C460B46024623F000401043ED
:1005300047D0270DC7F30A00C3F30A510290401AAF
:10054000019040286BDAC3F3130040F4801B00983D
:10055000924620B10023D2EB030A63EB0B0B019808
:100560005946C0F14002504600F094F906460D4647
:1005700050465946019A00F09CF910EB0800614181
:10058000002487EA115284EAE7731A4340D0009AA4
:1005900062B3019A012A4FEA075215DC001B61EB96
:1005A00002014FF0004202EA0752CDE90042001C6E
:1005B00041F5801132462B4600F09CF903B0BDE8AE
:1005C000F08F40462146F9E7001B61EB0201001C59
:1005D00041F5801300185B412018A2F5001747EB86
:1005E000030140EAD570B6196D4111E06D084FEA7C
:1005F000360645EAC0754FEA0752001B61EB02015F
:10060000001C41F5801149084FEA300000195141A2
:1006100032462B4603B0BDE8F04F00F05CB90098BD
:10062000012240000023D0EB020263EBE07300984C
:1006300021464FEAE074B8EB000061EB0401E9E702
:1006400083F000435BE781F0004158E72DE9FE4F5E
:1006500081EA030404F0004421F0004100944FF0CB
:10066000000B23F0004350EA01045ED052EA030479
:100670005BD0C3F30A54C1F30A552C44A4F2F334FB
:100680000194A0FB0254C1F3130141F48011C3F3A0
:10069000130343F4801301FB024400FB034E840A5E
:1006A000970A44EA815447EA8357A4FB07680295F6
:1006B0008D0A05FB07854FEA932C04FB0C54270594
:1006C000029D4FEA065847EA1637B5EB08056EEB70
:1006D000070C870E920E47EA811742EA8312A7FBA6
:1006E0000201B6EB0B0164EB00042B0D43EA0C3363
:1006F0005E1844EB1C50DA465146E7FB0201C5F395
:1007000013044FEA0B3343EA14534FEA0432019CBB
:1007100043EA0603A4F10C040294009CCDE900B462
:1007200000F0E8F803B0BDE8F08F00200146F9E7DB
:100730002DE9F04D81EA030404F0004B21F000455F
:1007400014464FF0000A23F0004150EA050220D081
:1007500054EA01021DD0C5F30A570246C5F313033C
:10076000C1F31300C1F30A5640F4801543F480131B
:10077000A7EB0608101BD64608F2FD3873EB050000
:1007800002D308F1010801E092185B41B8F1000FB3
:1007900003DA00200146BDE8F08D00204FF48011FF
:1007A000064684460EE0171B73EB050705D3121BA4
:1007B00063EB050306434CEA010C49084FEA30009D
:1007C00092185B4150EA0107EDD152EA030012D0C2
:1007D00082EA040083EA0501084305D0101BAB41FF
:1007E00006D20122002306E000224FF0004302E07F
:1007F0006FF0010253101AEB06004CEB085110EB9E
:100800000A0041EB0B01BDE8F04D00F064B8C1F304
:100810000A52C1F3130140F2FF3341F480119A42AE
:1008200002DA00200146704740F233439A42A2F2B6
:10083000334202DC5242FFF7E3BC00F02BB8000069
:1008400030B5041E71F1000404DB4FF00044404257
:1008500064EB0101141E73F1000405DB1C464FF02C
:100860000043524263EB0403994208BF904230BDFB
:10087000064C074D06E0E06840F0010394E80700ED
:1008800098471034AC42F6D3FFF756FCA86900082D
:10089000C8690008202A04DB203A00FA02F100208F
:1008A00070479140C2F1200320FA03F319439040AE
:1008B0007047202A06DBCB17203A41FA02F043EAC0
:1008C000E07306E041FA02F3D040C2F12002914009
:1008D00008431946704710B5141E73F1000408DA76
:1008E000401C41F1000192185B411A4301D120F0F4
:1008F000010010BD2DE9F04D92469B4611B1B1FAB1
:1009000081F202E0B0FA80F220329046FFF7C2FF97
:1009100004460F4640EA0A0041EA0B0153465A4694
:10092000084313D0114653EA010019D0C8F1400220
:100930005046FFF765FC05460E465046594642466E
:10094000FFF7A8FF084305D0012004E02046394600
:10095000BDE8F08D0020054346EAE0762C4337439E
:100960000A986305E40AA0EB08000022FD0A44EAA5
:1009700047540A3002D500200146E9E70105101965
:100980006941DDE9084500196941BDE8F04DA2E77C
:1009900010B5024800F03EFC10BD000048030020E6
:1009A00070B5044600252068806800F0010018B387
:1009B0002068806820F001002168886001F0C4FF91
:1009C000054613E001F0C0FF401B02280ED9206845
:1009D000806800F0010048B1A06A40F01000A062F9
:1009E000E06A40F00100E062012070BD206880688C
:1009F00000F001000028E5D10020F6E770B50546BB
:100A00006C6AA06A00F05000E0B9A06A40F400707F
:100A1000A0622068806800F46020B0F5602F0DD1DE
:100A2000207B58B9A06A20F48070A062A06A00F40C
:100A3000805018B9A06A40F00100A062204600F082
:100A40001BFB03E0206A016B2846884770BD70B528
:100A500005466C6AA06A40F04000A062E06A40F07F
:100A60000400E062204600F0D4FB70BD70B504467F
:100A7000656A284600F0CCFB70BD000010B54FF44D
:100A8000967004F032F90D4800F0B6F94FF4967004
:100A900004F02BF90A48002101604160816098212F
:100AA0000848FFF7D6FB002007490860074908609F
:100AB00006220349014800F0DFFD10BD4803002075
:100AC000304600203C460020F0000020EC000020D2
:100AD00038B504460025002000902068806800F0AA
:100AE000010078BB2068806840F0010021688860C0
:100AF000194800681949B0FBF1F0009002E0009835
:100B0000401E009000980028F9D101F01DFF054615
:100B100019E001F019FF401B022814D920688068F1
:100B200000F0010078B9A06A40F01000A062E06A0D
:100B300040F00100E06200BF002084F8240000BF04
:100B4000012038BD05E02068806800F00100002821
:100B5000DFD00020F5E700000C00002040420F002D
:100B60001CB525A126A004F01DFD2949294804F043
:100B700001F929490860294890F820000968C861EE
:100B800003220021012005F077F824490860084677
:100B9000006828B100231A460868194605F0E8F8ED
:100BA0000020012103464FF4C062CDE900101CA1D2
:100BB0001C4805F003FCFFF761FF4FF47A7004F066
:100BC00094F800BF184803F071FF1749886803F0D4
:100BD000E3FE124948631449886903F0DDFE0F49BA
:100BE000886301F134040C480068836A22460121BD
:100BF000094800689847E5E75B5379735D0000009A
:100C00007461736B20312073746172740A00000088
:100C1000490D0008C54D0008C000002074000020E8
:100C200063616E004D0C0008BC41002000BFFEE770
:100C300010B502460B460024002102E0505C04443B
:100C4000491C9942FAD3E0B210BD000001202749A7
:100C5000486100208861084690F83000F02101EAE0
:100C6000001022494860002120488160C160016174
:100C700001201E49C8611EA11FA004F093FC0022A0
:100C80002821062004F0F8FF1F490860174803F0E8
:100C9000C5FE03F0FFFE00BF15A11CA004F082FCFE
:100CA0004FF0FF321C491848006805F0B1F90446BE
:100CB000002C04DC0EA119A004F074FCECE716482B
:100CC0000068052800D00FE01348836808A1426837
:100CD00015A004F067FC1B480068C26A0E49203169
:100CE00018480068904700BF00BFD5E77400002097
:100CF0005B5379735D00000063616E207461736BF8
:100D00002073746172740A0070000020747279207C
:100D100063616E0A000000000842002067657420CD
:100D20006E6F2063616E0A006765742063616E20D8
:100D30006D73672049443A2578204558543A257800
:100D40000A000000C000002070B588B004460D46BF
:100D5000182102A8FFF77DFA0820069002940020CF
:100D6000049005908DF81C0001AB2A4602A90548A5
:100D700000F057FD064616B9082008B070BD0020E7
:100D8000FBE70000BC03002010B5024801F0CCF9DD
:100D900010BD00007803002010B502F0F3FE002221
:100DA00006210B2001F086FE0B2001F073FE02F0FD
:100DB00063FE00220621122001F07CFE122001F0C9
:100DC00069FE10BD30B590F840500124AC40C56BB1
:100DD0006C60046863604468102C04D10468A260ED
:100DE0000468E16003E00468A1600468E26030BD6B
:100DF000704772B600BFFEE7F8B504460026002033
:100E0000009000BF94F82400012801D10220F8BD11
:100E1000012084F8240000BF2046FFF7C1FD0646EC
:100E20002046FFF755FE0646002E69D1A06A20F441
:100E3000885040F00200A062022001F08DFE34498B
:100E40000968B1FBF0F04000009002E00098401EFD
:100E5000009000980028F9D12068806840F00800D0
:100E60002168886001F070FD054616E001F06CFD18
:100E7000401B0A2811D92068806800F0080060B182
:100E8000A06A20F0020040F01000A06200BF002025
:100E900084F8240000BF0120B9E72068806800F0D2
:100EA00008000028E2D12068806840F00400216832
:100EB000886001F049FD054616E001F045FD401B44
:100EC0000A2811D92068806800F0040060B1A06A87
:100ED00020F0020040F01000A06200BF002084F863
:100EE000240000BF012092E72068806800F0040021
:100EF0000028E2D1A06A20F0020040F00100A062C8
:100F000000BF002084F8240000BF30467FE70000C7
:100F10000C0000207047000038B502460023002076
:100F2000009000BF92F82400012801D1022038BDB2
:100F3000012082F8240000BF4868072812D21068F8
:100F4000406B0C79641E04EB84051F24AC40A04365
:100F50000D796D1E05EB85050C68AC4020431468C7
:100F6000606327E048680D2812D21068006B0C7986
:100F7000E41F04EB84051F24AC40A0430D79ED1F52
:100F800005EB85050C68AC4020431468206311E034
:100F90001068C06A0C790D3C04EB84051F24AC403A
:100FA000A0430D790D3D05EB85050C68AC40204351
:100FB0001468E06208680A2812D31068C0680C78C8
:100FC0000A3C04EB44050724AC40A0430D780A3DDD
:100FD00005EB45058C68AC4020431468E0600FE0E9
:100FE000106800690C7804EB44050724AC40A0436A
:100FF0000D7805EB45058C68AC40204314682061F2
:101000000868102802D00868112827D1174C1068EA
:10101000A0421ED11068806800F40000F0B910688A
:10102000806840F400001468A0600868102815D19A
:101030000F4800680F4CB0FBF4F000EB800040005C
:10104000009002E00098401E009000980028F9D11E
:1010500004E0906A40F020009062012300BF00206D
:1010600082F8240000BF184661E700000024014018
:101070000C00002040420F0070B506465F48006833
:10108000401C5E490860002421E05D4931F81400ED
:10109000FFF7B2F905465B48006800EB400202EB3F
:1010A0000010594A02EB8000001D50F82410284619
:1010B000FFF7DAF85349096801EB410202EB01112D
:1010C000514A02EB8101091D41F82400641C062CE1
:1010D000DBD34A480068012823D100241EE0484899
:1010E00030F814104548006800EB400202EB001095
:1010F000454A02EB80001C3040F82410404830F88C
:1011000014103E48006800EB400202EB00103E4A1B
:1011100002EB8000343040F82410641C062CDED32F
:1011200044E0002440E03548006800EB400101EB5A
:101130000010354901EB80001C3050F82400304984
:1011400031F8141088420ED22D4830F814102D4872
:10115000006800EB400202EB00102B4A02EB80001B
:101160001C3040F824102548006800EB400101EBDA
:101170000010254901EB8000343050F8240020494C
:1011800031F8141088420ED91D4830F814101D484B
:10119000006800EB400202EB00101B4A02EB8000EB
:1011A000343040F82410641C062CBCD3134800686B
:1011B000202815D31348006808B9012000E000205A
:1011C00010490860096801EB410202EB01110E4A67
:1011D00002EB81004C21FFF73CF800200749086032
:1011E00007480021016041608160084800F0ACF9C7
:1011F00006220349054800F03FFA70BDF0000020C8
:1012000030460020EC0000203C460020480300202F
:101210007047704770B504462068056820684668C6
:1012200006F0200020282DD105F00200022829D147
:10123000A06A00F0100018B9A06A40F40070A06223
:101240002068806800F46020B0F5602F13D1207B07
:1012500088B92068406820F0200021684860A06AB2
:1012600020F48070A062A06A00F4805018B9A06ACF
:1012700040F00100A0622046FFF7FEFE6FF0120072
:101280002168086006F08000802839D105F004004C
:10129000042835D1A06A00F0100018B9A06A40F403
:1012A0000050A0622068806800F4E040B0F5E04F94
:1012B0000DD02068406800F48060D0B92068806854
:1012C00000F46020B0F5602F13D1207B88B920682E
:1012D000406820F0800021684860A06A20F48050B7
:1012E000A062A06A00F4807018B9A06A40F0010002
:1012F000A0622046FFF70EFE6FF00C002168086028
:1013000006F0400040280DD105F0010050B1A06A60
:1013100040F48030A062204600F0B6F86FF0010083
:101320002168086070BD00002DE9F04104460027E7
:1013300000250026A84614B90120BDE8F081A06868
:1013400010B1207D00B100BFA06A30B90020E0627A
:1013500084F82400204600F099F82046FFF720FB8F
:101360000746A06A00F01000002873D1002F7ED13C
:10137000A06A20F4885040F00200A0623F4AD4E9FD
:101380000001904208D1E069B0F5402F02D14FF43E
:10139000002002E0E06900E0E0690143207B41EACF
:1013A00040000643A068B0F5807F02D0A068012805
:1013B00002D14FF4807000E000200543207D012819
:1013C00011D1207B38B9A069401E4FF4006141EA79
:1013D0004030054307E0A06A40F02000A062E06AC8
:1013E00040F00100E0622068406820F46940284332
:1013F000216848602068806821490840304321689E
:101400008860A068B0F5807F02D0A068012802D172
:101410004FF4807000E00020B0F5807F03D1208A77
:10142000401E4FEA00582068C06A20F4700040EA6D
:1014300008002168C8622068806812490840B042EC
:1014400009D10020E062A06A20F0020040F0010013
:10145000A06211E00BE0A06A20F0020040F0100052
:10146000A062E06A40F00100E062012704E0A06AA7
:1014700040F01000A062012738465EE7003C0140C2
:10148000FDF7E1FFFE0E1FFF7047000010B586B0AC
:10149000044600200290039004900590254920689E
:1014A000884245D100BF2448806940F40070224939
:1014B00088610846806900F40070019000BF00BF99
:1014C00000BF0846806940F00400886108468069D2
:1014D00000F00400019000BF00BF3F2002900320F5
:1014E000039002A9154801F07FF8154815490860D6
:1014F000002048600021134881608021C1604900BC
:1015000001618900416100218161C16100F0D8FF62
:1015100008B1FFF76EFC00BF0A482062446200BFBA
:1015200000220521122001F0C5FA122001F0B2FAC2
:1015300006B010BD00240140001002400008014028
:10154000080002407803002070B50446002500BF63
:1015500094F82400012801D1022070BD012084F8F4
:10156000240000BF2046FFF7B3FA0546002D77D1CF
:10157000A06A40F20121884340F48070A0623C4997
:101580002068884208D13B48006800F4702008B900
:10159000012002E0002000E0012078B1A06A20F4E0
:1015A0008010A0622068406800F4806000B3A06AE8
:1015B00020F4005040F48050A06219E0A06A40F48A
:1015C0008010A0622B49091F2068884203D0284957
:1015D0002068884204D12748006800F4806000E059
:1015E000002028B1A06A20F4005040F48050A0628E
:1015F000A06A00F4805020B1E06A20F00600E062AA
:1016000001E00020E06200BF002084F8240000BF59
:10161000C01E216808602068806800F46020B0F572
:10162000602F16D112492068884208D111480068FD
:1016300000F4702008B9012002E0002000E0012041
:1016400038B12068806840F4A000216888600CE010
:1016500006E02068806840F480102168886004E01B
:1016600000BF002084F8240000BF284675E7000072
:1016700000280140042401402DE9F04104460D46B4
:101680001646002757492068884203D056492068EB
:10169000884205D15348001D006800F4702000E026
:1016A000002000287ED100BF94F82400012802D138
:1016B0000220BDE8F081012084F8240000BF20460C
:1016C000FFF706FA0746002F6DD1A06A40F60161C8
:1016D000884340F48070A06243492068884209D161
:1016E0004048001D006800F4702008B9012002E0A5
:1016F000002000E0012078B1A06A20F48010A062F0
:101700002068406800F4806000B3A06A20F40050B4
:1017100040F48050A06219E0A06A40F48010A062FA
:1017200030492068884203D02F492068884205D17B
:101730002C48001D006800F4806000E0002028B103
:10174000A06A20F4005040F48050A062A06A00F427
:10175000805020B1E06A20F00600E06201E0002045
:10176000E06200BF002084F8240000BF1F48216A07
:1017700088621F48216AC8621E48216A08636FF0A8
:101780000200216808602068806840F48070216849
:101790008860226802F14C0133462A46206A00F034
:1017A000D5FE01E01AE014E02068806800F46020B3
:1017B000B0F5602F06D12068806840F4A000216851
:1017C00088600CE02068806840F4801021688860A0
:1017D00005E000BF002084F8240000E0012738461F
:1017E00067E700000024014000280140FD090008CF
:1017F0006D0A00084F0A000810B5024692F8203022
:10180000012B01D0022B06D11068406908431468EF
:101810006061002010BD506A40F4802050620120B9
:10182000F8E7F0B504460D461E4694F8207020688F
:101830008368A86800B900E000BF012F01D0022F23
:101840007DD103F0806030B903F0006018B903F077
:10185000805000287ED0C3F30161012088403060B1
:10186000A86860B9B5F800C0E86840EA4C5C206838
:1018700000F5C07000EB0110C0F800C00FE0D5E922
:1018800001C040EACC00D5F80CC040EA0C00D4F806
:1018900000C00CF5C07C0CEB011CCCF80000D5F8A6
:1018A00010C0206800F5C07000EB0110C0F804C043
:1018B000287D01280ED1206800F5C07000EB0110D2
:1018C000406840F4807C206800F5C07000EB011097
:1018D000C0F804C0D079000692F806C040EA0C4077
:1018E00092F805C040EA0C2092F804C040EA0C00CF
:1018F000D4F800C00CF5C07C0CEB011CCCF80C003B
:10190000D078000692F802C040EA0C4092F801C07C
:1019100040EA0C2092F800C040EA0C00D4F800C065
:101920000CF5C07C0CEB011CCCF80800206800F51D
:10193000C07000EB0110006840F0010C01E00FE006
:1019400008E0206800F5C07000EB0110C0F800C08E
:101950000020F0BD606A40F4001060620120F8E7EA
:10196000606A40F4802060620120F2E7F0B504462E
:101970000A46216894F82050012D01D0022D74D11F
:10198000D1F8000240F00100C1F80002107D00F023
:101990001F06012000FA06F3D1F81C029843C1F893
:1019A0001C02D069C8B9D1F80C029843C1F80C02E6
:1019B000908880B2968940EA064601F51070576912
:1019C00040F83760108880B2168940EA064601F573
:1019D0001070576900EBC7004660D069012819D123
:1019E000D1F80C021843C1F80C02908880B2168816
:1019F00040EA064601F51070576940F83760908953
:101A000080B2168940EA064601F51070576900EB6E
:101A1000C7004660906928B9D1F804029843C1F81C
:101A2000040204E0D1F804021843C1F8040210696A
:101A300028B9D1F814029843C1F8140204E0D1F88F
:101A400014021843C1F81402106A012804D1D1F815
:101A50001C021843C1F81C02D1F8000220F001005A
:101A6000C1F800020020F0BDFFE7606A40F480206A
:101A700060620120F7E7704770B5044694F8205083
:101A8000012D01D0022D7DD151B92068C06800F030
:101A9000030080B9606A40F400106062012070BDEC
:101AA0002068006900F0030028B9606A40F4001063
:101AB00060620120F3E7206800F5D87000EB0110A8
:101AC000006800F004009060906840B9206800F55C
:101AD000D87000EB01100068400D106007E020682E
:101AE00000F5D87000EB01100068C0085060206855
:101AF00000F5D87000EB0110006800F00200D06023
:101B0000206800F5D87000EB0110406800F00F006D
:101B1000082802D30820106108E0206800F5D8707A
:101B200000EB0110406800F00F001061206800F524
:101B3000D87000EB0110406800F47F40000A90610B
:101B4000206800F5D87000EB01104068000C50616F
:101B5000206800F5D87000EB0110806818702068CC
:101B600000F5D87000EB0110806800F47F40000A97
:101B70005870206800F5D87000EB0110806800F400
:101B80007F0000E03CE0000C9870206800F5D87001
:101B900000EB01108068000ED870206800F5D87046
:101BA00000EB0110C0681871206800F5D87000EBD8
:101BB0000110C06800F47F40000A5871206800F5E9
:101BC000D87000EB0110C06800F47F00000C987121
:101BD000206800F5D87000EB0110C068000ED871C5
:101BE00031B92068C06840F020002668F06005E048
:101BF0002068006940F020002668306100204EE730
:101C0000606A40F480206062012048E72DE9F05FBF
:101C100004460025206846692068D0F804902068B2
:101C200087682068D0F80CA02068D0F810B0206831
:101C3000D0F8188006F00100002855D007F0010008
:101C4000C0B101202168886007F0020018B1204669
:101C500000F063FA0EE007F0040010B145F40065EF
:101C600008E007F0080010B145F4805502E0204676
:101C700000F052FA07F48070C8B14FF48070216808
:101C8000886007F4007018B1204600F048FA0EE0B2
:101C900007F4806010B145F4005508E007F40060D7
:101CA00010B145F4804502E0204600F037FA07F411
:101CB0008030C8B14FF480302168886007F400306C
:101CC00018B1204600F02DFA0EE007F4802010B184
:101CD00045F4004508E007F4002010B145F48035D4
:101CE00002E0204600F01CFA06F0080038B10AF0C5
:101CF000100020B145F4007510202168C86006F07E
:101D0000040040B10AF0080028B108202168C8602A
:101D1000204600F0A9F906F0020038B12068C0683A
:101D200000F0030010B1204600F0A0F906F04000DA
:101D300038B10BF0100020B145F480651020216807
:101D4000086106F0200040B10BF0080028B108201F
:101D500021680861204600F0ADF906F0100038B1A6
:101D60002068006900F0030010B1204600F0A3F9DC
:101D700006F4003040B109F0100028B110202168AD
:101D80004860204600F098F906F4803040B109F030
:101D9000080028B1082021684860204600F0C2F9F8
:101DA00006F4004088B309F0040078B306F48070AC
:101DB00020B108F0010008B145F0010506F40070FB
:101DC00020B108F0020008B145F0020506F4806079
:101DD00020B108F0040008B145F0040506F40060E5
:101DE000A0B108F0700088B108F07000402817D04A
:101DF00006DC10280BD020280CD0302819D10CE09C
:101E0000502810D0602814D110E01DE019E045F0F2
:101E100008050FE045F010050CE045F0200509E04D
:101E200045F0400506E045F0800503E045F4807587
:101E300000E000BF00BF2068806920F070002168CA
:101E400088610420216848602DB1606A284360627F
:101E50002046FFF710FEBDE8F09F70B504460CB9B0
:101E6000012070BD94F8200010B9204600F0B0F8B1
:101E70002068006840F001002168086000F064FDFF
:101E800005460DE000F060FD401B0A2808D9606A95
:101E900040F400306062052084F820000120E0E773
:101EA0002068406800F001000028EBD0206800683E
:101EB00020F002002168086000F046FD05460DE0B4
:101EC00000F042FD401B0A2808D9606A40F4003047
:101ED0006062052084F820000120C2E72068406885
:101EE00000F002000028EBD1207E012806D12068F6
:101EF000006840F080002168086005E02068006804
:101F000020F0800021680860607E012806D12068EA
:101F1000006840F040002168086005E02068006823
:101F200020F0400021680860A07E012806D12068CA
:101F3000006840F020002168086005E02068006823
:101F400020F0200021680860E07E012806D120688A
:101F5000006820F010002168086005E02068006833
:101F600040F0100021680860207F012806D1206819
:101F7000006840F008002168086005E020680068FB
:101F800020F0080021680860607F012806D12068E1
:101F9000006840F004002168086005E020680068DF
:101FA00020F0040021680860D4E902010843216997
:101FB0000843616908436168491E08432168C86194
:101FC00000206062012084F82000002049E7000022
:101FD00010B586B00446002002900390049005904E
:101FE0001E492068884236D100BF1D48C06940F0B4
:101FF00000701B49C8610846C06900F0007001907C
:1020000000BF00BF00BF0846806940F0040088613F
:102010000846806900F00400019000BF00BFC814AA
:10202000029000200390049002A90E4800F0DCFA10
:102030004FF480500290022003900320059002A9E3
:10204000084800F0D1FA00220521142000F032FDEA
:10205000142000F01FFD06B010BD00000064004019
:1020600000100240000801407047000010B504460F
:102070000D4920680968884214D10DE00B4BA3F18B
:102080001C0200210848FFF7F7FC0520074920390A
:102090000860084603F0B4F90548006800F0030042
:1020A0000028EBD110BD0000BC030020F446002046
:1020B0000C64004070477047704770B5044694F850
:1020C0002000012822D1022084F820002068006826
:1020D00020F001002168086000F036FC05460DE0A4
:1020E00000F032FC401B0A2808D9606A40F4003036
:1020F0006062052084F82000012070BD20684068DF
:1021000000F001000028EBD16062F6E7606A40F45D
:10211000002060620120F0E7704770477047704709
:10212000704770477047000070B50446E06B056863
:102130002068066894F84010042088402840002851
:1021400075D006F004000028FAD02068006800F07E
:10215000200028B92068006820F004002168086089
:10216000D5492068884254D9D349783920688842B3
:1021700001D1042049E0D04964392068884201D166
:10218000402042E0CC4950392068884201D10015F6
:102190003BE0C9493C392068884202D14FF4804075
:1021A00033E0C54928392068884202D14FF48020A5
:1021B0002BE0C14914392068884202D14FF48000D5
:1021C00023E0BD492068884201D1C0041DE0BB491D
:1021D0002068884201D1042017E0B84914312068F2
:1021E000884201D1402010E0B4492831206888425B
:1021F00001D1001509E0B1493C312068884202D183
:102200004FF4804001E04FF48020AC49091F086082
:1022100054E0A94978392068884201D104204AE075
:10222000A54964392068884202D1402043E04CE04F
:10223000A14950392068884201D100153BE09E49F0
:102240003C392068884202D14FF4804033E09A49FB
:1022500028392068884202D14FF480202BE096492B
:1022600014392068884202D14FF4800023E092495B
:102270002068884201D1C0041DE09049206888424E
:1022800001D1042017E08D4914312068884201D122
:10229000402010E0894928312068884201D100158A
:1022A00009E086493C312068884202D14FF48040E1
:1022B00001E04FF48020804980394860E06A0028BE
:1022C00002D02046E16A8847F4E094F840100220EA
:1022D00088402840002871D006F002000028FAD07B
:1022E0002068006800F0200040B92068006820F0F5
:1022F0000A0021680860012084F821006E492068E6
:10230000884254D96C4978392068884201D102202A
:1023100049E0694964392068884201D1202042E0BF
:10232000654950392068884201D140153BE0624937
:102330003C392068884202D14FF4005033E05E49B6
:1023400028392068884202D14FF400302BE05A49E6
:1023500014392068884202D14FF4001023E0564916
:102360002068884201D180041DE0544920688842D9
:1023700001D1022017E0514914312068884201D16F
:10238000202010E04D4928312068884201D14015B5
:1023900009E04A493C312068884202D14FF400509C
:1023A00001E04FF400304549091F086054E04249FC
:1023B00078392068884202D102204AE057E03E493D
:1023C00064392068884201D1202042E03A495039DE
:1023D0002068884201D140153BE037493C392068EC
:1023E000884202D14FF4005033E033492839206845
:1023F000884202D14FF400302BE02F491439206875
:10240000884202D14FF4001023E02B492068884213
:1024100001D180041DE029492068884201D10220B1
:1024200017E0264914312068884201D1202010E0AD
:10243000224928312068884201D1401509E01F490E
:102440003C312068884202D14FF4005001E04FF443
:10245000003019498039486000BF002084F820000E
:1024600000BFA06A30B32046A16A884722E094F8F2
:102470004010082088402840E0B106F00800C8B1AC
:102480002068006820F00E002168086094F8401071
:1024900001208840E16B48600120A06384F821009E
:1024A00000BF002084F8200000BF206B10B1204640
:1024B000216B884770BD0000800002400804024084
:1024C0000146002209B9012070471E4B0868984256
:1024D0000BD21D4B0868C01A1423B0FBF3F0800028
:1024E000086419480838C8630AE0164B0868C01A1F
:1024F0001423B0FBF3F08000086412480838C86366
:10250000022081F821000868026843F6F0708243D7
:10251000D1E901031843CB6818430B6918434B6991
:1025200018438B691843CB6918430243086802605B
:1025300000208863012081F82100002081F820001C
:1025400000BFC1E708040240080002402DE9F04145
:1025500004460D4616461F464FF0000800BF94F88B
:102560002000012802D10220BDE8F081012084F87A
:10257000200000BF94F8210001282CD1022084F80B
:1025800021000020A0632068006820F0010021687D
:1025900008603B46324629462046FEF713FCE06AB7
:1025A00030B12068006840F00E00216808600BE040
:1025B0002068006820F00400216808602068006836
:1025C00040F00A00216808602068006840F00100BF
:1025D0002168086006E000BF002084F8200000BFEA
:1025E0004FF002084046BFE72DE9F84702460023B6
:1025F0009C467BE14FF0010808FA03F4D1F8008013
:1026000008EA0400A0427DD1DFF8F4A2D1F80480EA
:10261000A8EB0A09D0453AD014DCB8F1030F50D02A
:1026200009DCB8F1000F31D0B8F1010F1CD0B8F1BE
:10263000020F49D120E0B8F1110F18D0B8F1120FF4
:1026400042D11EE0B9F5881F25D006DCB9F5803FE0
:1026500020D0B9F5801F37D11AE0B9F5001F18D086
:10266000B9F5041F30D117E0D1F80CC02DE0D1F836
:102670000C8008F1040C28E0D1F80C8008F1080C5B
:1026800023E0D1F80C8008F10C0C1EE000BF00BF65
:1026900000BF00BF00BF00BFD1F80880B8F1000F35
:1026A00002D14FF0040C0BE0D1F80880B8F1010F13
:1026B00003D14FF0080C146102E04FF0080C546194
:1026C00003E04FF0000C00E000BF00BFFF2801D87E
:1026D000904601E002F104084646FF2802D84FEA7E
:1026E000830803E0A3F108084FEA88084746D6F8B4
:1026F00000804FF00F0909FA07F928EA09080CFAD7
:1027000007F900E07AE048EA0908C6F80080D1F845
:10271000048008F08058B8F1805F6FD100BFDFF807
:10272000E481D8F8188048F00108DFF8D891C9F89A
:102730001880C846D8F8188008F00108CDF8008045
:1027400000BF00BF4FEAB9384FEA930958F8295043
:102750004FEA83784FEA18794FF00F0808FA09F822
:1027600025EA0805DFF8A081424502D14FF00008B4
:1027700024E0DFF89881424502D14FF001081DE0C6
:10278000DFF88C81424502D14FF0020816E0DFF8F5
:102790008481424502D14FF003080FE0DFF87881D1
:1027A000424502D14FF0040808E0DFF8708142454D
:1027B00002D14FF0050801E04FF006084FEA837997
:1027C0004FEA197908FA09F848EA0505DFF8508157
:1027D0004FEA930948F82950D1F8048008F480188A
:1027E000B8F5801F0BD1DFF83C81D8F8008048EAAB
:1027F0000008DFF83091C9F800800AE075E0DFF8E2
:102800002481D8F8008028EA0008DFF81891C9F878
:102810000080D1F8048008F40018B8F5001F0ED12C
:10282000DFF8008108F10408D8F8008048EA0008C1
:10283000DFF8F09009F10409C9F800800DE0DFF835
:10284000E48008F10408D8F8008028EA0008DFF8DE
:10285000D49009F10409C9F80080D1F8048008F483
:102860000038B8F5003F0ED1DFF8B880A8F10408B1
:10287000D8F8008048EA0008DFF8A890A9F1040918
:10288000C9F800800DE0DFF89C80A8F10408D8F8B2
:10289000008028EA0008DFF88C90A9F10409C9F843
:1028A0000080D1F8048008F48038B8F5803F0ED15C
:1028B000DFF87080A8F10808D8F8008048EA00081E
:1028C000DFF86090A9F10809C9F800800DE0DFF891
:1028D0005480A8F10808D8F8008028EA0008DFF83A
:1028E0004490A9F10809C9F800805B1CD1F8008068
:1028F00028FA03F8B8F1000F7FF47CAEBDE8F88742
:10290000000011100010024000080140000C0140BE
:10291000001001400014014000180140001C01405B
:10292000080001400804014010B5C26821EA020312
:1029300002EA010443EA0443036110BD0AB10161E4
:1029400001E00B0403617047014800687047000014
:102950000000002003480068034909780844014941
:1029600008607047000000200800002010B50848EB
:10297000006840F0100006490860032000F0D8F815
:102980000F2000F007F800F055F8002010BD0000FF
:1029900000200240F0B587B004460026002700253D
:1029A00000BF1F48806940F400601D4988610846E7
:1029B000806900F40060009000BF00BF01A902A878
:1029C00000F0B4FA00F0EAFA06461648B6FBF0F05A
:1029D000471E15481549086040F2E7311348C160A9
:1029E0004760002101618160816100F001FE0546C0
:1029F00095B90E4800F030FE05466DB9192000F07B
:102A000049F8102C07D200222146192000F052F874
:102A10000748046000E00125284607B0F0BD00002B
:102A20000010024040420F00002C014084040020AE
:102A30000400002008B500BF1448806940F0010080
:102A4000124988610846806900F00100009000BFCB
:102A500000BF00BF0846C06940F08050C86108460A
:102A6000C06900F08050009000BF00BF00220F211D
:102A7000901E00F01FF800BF0549486820F0E06094
:102A800040F00070486000BF08BD00000010024028
:102A90000000014001460846002809DB00F01F0342
:102AA00001229A4043099B0003F1E023C3F800216F
:102AB00000BF70472DE9F05F80460D46164600279F
:102AC00001F0DAFA074639462A46334601F0070094
:102AD000C0F1070ABAF1040F02D94FF0040A01E06D
:102AE000C0F1070AD14600F1040ABAF1070F02D279
:102AF0004FF0000A01E0A0F1030AD4464FF0010AAA
:102B00000AFA09FAAAF1010A0AEA020A0AFA0CFA0E
:102B10004FF0010B0BFA0CFBABF1010B0BEA030BB3
:102B20004AEA0B042146404601F0AEFABDE8F09FA8
:102B300000BF00F00702064B19684FF6FF0319406B
:102B4000044B0B4343EA0221014B196000BF70475D
:102B50000CED00E00000FA052DE9F04706464FF0C5
:102B60000008002500270024A146042E37D004DCED
:102B7000012E3CD0022E6CD160E0082E33D0102EF6
:102B800067D136484468006800F0807008B3344864
:102B9000C4F38341475C04F4803078B12F48406827
:102BA000C0F340402F4911F8008004F4803040B158
:102BB0002D48B0FBF8F000FB07F502E02B4807FBBF
:102BC00000F52648406800F48000B0F5800F01D180
:102BD000A94603E068000321B0FBF1F93AE000F0F8
:102BE000EDF9814636E000F0E9F9814632E01B4814
:102BF000046A04F44070B0F5807F05D104F002004F
:102C000010B14FF4004918E004F44070B0F5007FB3
:102C100007D11248406A00F0020010B149F640495D
:102C20000BE004F44070B0F5407F06D10B4800681B
:102C300000F4003008B14FF224490BE000F0AEF987
:102C400006494968C1F38131491C4900B0FBF1F9DB
:102C500000E000BF00BF4846BDE8F087001002401A
:102C60007E6900088E69000800127A0000093D00A4
:102C7000F8B5044600260025207800F00100002861
:102C80006BD000274348C06900F0805070B900BF86
:102C90004048C06940F080503E49C8610846C0695C
:102CA00000F08050009000BF00BF01273A48006844
:102CB00000F48070B0B93848006840F4807036493C
:102CC0000860FFF741FE064606E0FFF73DFE801B69
:102CD000642801D90320F8BD2F48006800F48070F3
:102CE0000028F2D02B48006A00F440752DB3A0886C
:102CF00000F44070A84220D02648006A20F44075B5
:102D0000012026490860002008602248056205F07D
:102D1000010090B1FFF718FE064608E0FFF714FE29
:102D2000801B41F28831884201D90320D3E719483A
:102D3000006A00F002000028F0D01648006A20F473
:102D400040706168084313490862012F04D10846A6
:102D5000C06920F08050C86100BF207800F00200F8
:102D6000022807D10B48406820F44040A16808437E
:102D700008494860207800F01000102807D1054865
:102D8000406820F4800061690843024948600020DF
:102D9000A1E70000001002400070004040044242E1
:102DA00070B504460D460CB9012070BD5A48006844
:102DB00000F00700A8420ED25748006820F0070034
:102DC0002843554908600846006800F00700A842FB
:102DD00001D00120E9E7207800F0020002281DD18F
:102DE000207800F00400042805D14C48406840F4E5
:102DF000E0604A494860207800F00800082805D1C2
:102E00004648406840F46050444948604348406840
:102E100020F0F000A168084340494860207800F0A5
:102E2000010078B36068012806D13C48006800F4CE
:102E3000003090B90120B8E76068022806D1374811
:102E4000006800F0007040B90120AEE73348006828
:102E500000F0020008B90120A7E73048406820F0E0
:102E60000300616808432D494860FFF76DFD064681
:102E700009E0FFF769FD801B41F28831884202D9E1
:102E8000032092E707E02548406800F00C006168E5
:102E9000B0EB810FEDD12048006800F00700A84298
:102EA0000ED91D48006820F0070028431A49086021
:102EB0000846006800F00700A84201D0012074E72E
:102EC000207800F00400042807D11448406820F45A
:102ED000E060E168084311494860207800F008008C
:102EE000082808D10D48406820F46050216940EA64
:102EF000C1000A49486000F061F808494968C1F317
:102F00000311074A515CC84006490860064800683A
:102F1000FFF740FD002048E700200240001002407B
:102F2000906900080C000020040000200F220260BD
:102F30000D4A526802F0030242600B4A526802F0E6
:102F4000F0028260084A526802F4E062C260064AF7
:102F5000526802F46052D2080261044A126802F018
:102F600007020A6070470000001002400020024083
:102F700001480068704700000C00002000B5FFF712
:102F8000F7FF04494968C1F30221034A515CC84074
:102F900000BD000000100240A069000800B5FFF766
:102FA000E7FF04494968C1F3C221034A515CC840A4
:102FB00000BD000000100240A069000870B50021AB
:102FC0000022002400230020134D696801F00C0545
:102FD000F5B1042D02D0082D19D101E00F4819E0F8
:102FE0000F4DC1F38346AB5D01F4803555B10A4DF9
:102FF0006D68C5F340450B4E725D084D5D43B5FBF2
:10300000F2F402E0084D03FB05F4204602E000BFA5
:10301000024800BF00BF70BD0010024000127A00DD
:103020006C6900087C69000800093D00F8B5044699
:103030000CB90120F8BD207800F00100002878D0FC
:10304000F848406800F00C0004280CD0F5484068AF
:1030500000F00C00082811D1F248406800F48030DC
:10306000B0F5803F0AD1EF48006800F40030002836
:103070005FD0606800285CD10120DBE700BF60689A
:10308000B0F5803F06D1E748006840F48030E5495C
:10309000086028E0606858B9E248006820F4803091
:1030A000E04908600846006820F4802008601AE0C3
:1030B0006068B0F5A02F0BD1DA48006840F480209A
:1030C000D84908600846006840F4803008600AE08B
:1030D000D448006820F48030D2490860084600686F
:1030E00020F48020086000BF606888B1FFF72CFCE6
:1030F000054606E0FFF728FC401B642801D90320A1
:1031000098E7C848006800F400300028F2D010E0CA
:10311000FFF71AFC054606E0FFF716FC401B642883
:1031200001D9032086E7BF48006800F4003000287A
:10313000F2D1207800F00200022857D1B948406847
:1031400000F00C0050B1B748406800F00C000828AF
:1031500018D1B448406800F4803098B9B14800688C
:1031600000F0020020B12069012801D0012061E7B0
:10317000AC48006820F0F800616940EAC100A94944
:10318000086033E02069E8B10120A7490860FFF733
:10319000DBFB054606E0FFF7D7FB401B022801D901
:1031A000032047E79F48006800F002000028F2D0A3
:1031B0009C48006820F0F800616940EAC100994924
:1031C000086013E0002098490860FFF7BDFB054642
:1031D00006E0FFF7B9FB401B022801D9032029E7CD
:1031E0009048006800F002000028F2D1207800F03A
:1031F000080008282DD1A069B8B101208B490860CA
:10320000FFF7A2FB054606E0FFF79EFB401B0228E6
:1032100001D903200EE78348406A00F0020000282D
:10322000F2D0012000F064FD13E000207F49086027
:10323000FFF78AFB054606E0FFF786FB401B0228E6
:1032400001D90320F6E67748406A00F00200002822
:10325000F2D1207800F00400042873D100277148CF
:10326000C06900F0805070B900BF6E48C06940F07E
:1032700080506C49C8610846C06900F080500090D9
:1032800000BF00BF01276A48006800F48070B0B931
:103290006748006840F4807065490860FFF754FB98
:1032A000054606E0FFF750FB401B642801D90320C8
:1032B000C0E65F48006800F480700028F2D000BFCC
:1032C000E068012806D15748006A40F001005549DE
:1032D000086227E0E06858B95248006A20F001000F
:1032E000504908620846006A20F00400086219E0AC
:1032F000E06805280BD14B48006A40F004004949BA
:1033000008620846006A40F0010008620AE0454889
:10331000006A20F00100434908620846006A20F074
:103320000400086200BFE068A0B1FFF70DFB05468E
:1033300009E0FFF709FB401B41F28831884202D9BE
:10334000032077E622E03748006A00F002000028F8
:10335000EFD012E0FFF7F8FA054608E0FFF7F4FABD
:10336000401B41F28831884201D9032062E62D4892
:10337000006A00F002000028F0D1012F05D1294891
:10338000C06920F080502749C86100BFE069C8B318
:103390002448406800F00C00082860D0E06902284A
:1033A00048D1002020490866FFF7CEFA054606E01E
:1033B000FFF7CAFA401B022801D903203AE6194850
:1033C000006800F000700028F2D1206AB0F5803F5C
:1033D00007D11448406820F40030A168084311491F
:1033E0004860D4E9080108430E49496821F4741182
:1033F00008430C49486001200B490866FFF7A4FA0E
:10340000054607E03DE0FFF79FFA401B022801D97F
:1034100003200FE60348006800F000700028F2D097
:103420002FE00000001002400000424280044242AF
:1034300000700040002014490866FFF785FA054631
:1034400006E0FFF781FA401B022801D90320F1E5CD
:103450000E48006800F000700028F2D111E0E06929
:10346000012800D1E6E50948466806F48031206A63
:10347000814204D106F47011606A814201D00120BA
:10348000D8E50020D6E500000000424200100240CE
:1034900010B504460CB9012010BD606A38B96068E7
:1034A000B0F5827F00D105E00021E16102E000215A
:1034B000216161610021A16294F8510028B90020C6
:1034C00084F85000204600F043F8022084F85100B0
:1034D0002068006820F0400021680860A08800F49F
:1034E0008270218901F404410843A18901F400613B
:1034F0000843217C01F002010843217D01F0010114
:103500000843218B01F400710843217F01F0380149
:1035100008432021095D01F080010843218D01F459
:1035200000510843216808600421A06901EA1040A5
:10353000216848602068C06920F400602168C86183
:1035400000206065012084F851000020A4E70000FD
:1035500010B586B0044600200290039004900590B8
:103560001E492068884236D100BF1D48806940F45A
:1035700080501B4988610846806900F480500190A2
:1035800000BF00BF00BF0846806940F008008861A6
:103590000846806900F00800019000BF00BF2820A5
:1035A0000290022003900320059002A90D48FFF726
:1035B0001BF81020029000200390049002A90948F3
:1035C000FFF712F800BF0849486840F0E06040F09B
:1035D0000100486000BF06B010BD0000003001408F
:1035E00000100240000C014000000140704770478D
:1035F00010B504460CB9012010BD94F83D0028B95F
:10360000002084F83C00204600F025F8022084F8D1
:103610003D00211D206800F0E1FB012084F84600F8
:1036200000BF84F83E0001213F2001554020015594
:103630004120015500BF00BF012084F84200432013
:103640000155442001554520015500BF012084F853
:103650003D000020D0E77047014691F83D00012869
:1036600001D001207047022081F83D000868C06841
:1036700040F001000B68D860164B0868984213D0E0
:10368000154B086898420FD00868B0F1804F0BD0F6
:10369000124B0868984207D0114B0868984203D033
:1036A000104B086898420CD10868806800F0070247
:1036B000062A0CD00868006840F001000B6818600A
:1036C00005E00868006840F001000B681860002001
:1036D000C8E70000002C0140003401400004004015
:1036E00000080040000C0040704710B504462068F8
:1036F0000069C0F34000D8B12068C068C0F3400042
:10370000B0B16FF0020021680861012020772068C5
:10371000806900F0030018B12046FFF7E5FF05E0DF
:10372000204600F0ADF8204600F0ABF800202077EE
:1037300020680069C0F38000D8B12068C068C0F379
:103740008000B0B16FF0040021680861022020778A
:103750002068806900F4407018B12046FFF7C4FF6C
:1037600005E0204600F08CF8204600F08AF80020A2
:10377000207720680069C0F3C000D8B12068C06815
:10378000C0F3C000B0B16FF00800216808610420E8
:1037900020772068C06900F0030018B12046FFF7C9
:1037A000A3FF05E0204600F06BF8204600F069F822
:1037B0000020207720680069C0F30010D8B120688D
:1037C000C068C0F30010B0B16FF01000216808614C
:1037D000082020772068C06900F4407018B12046A6
:1037E000FFF782FF05E0204600F04AF8204600F08F
:1037F00048F8002020772068006900F0010058B1E7
:103800002068C06800F0010030B16FF0010021684D
:103810000861204600F036F820680069C0F3C01047
:1038200058B12068C068C0F3C01030B16FF080009C
:10383000216808612046FFF7D9FE20680069C0F3BF
:10384000801058B12068C068C0F3801030B16FF0AC
:10385000400021680861204600F020F820680069D7
:10386000C0F3401058B12068C068C0F3401030B1B8
:103870006FF02000216808612046FFF7B8FE10BDF8
:103880007047704710B5044603492068884201D14B
:10389000FFF760F810BD0000002C0140704710B524
:1038A00004460CB9012010BDA06900B100E000BFC2
:1038B00094F8410028B9002084F84000204600F028
:1038C00029F8242084F841002068C06820F40050C2
:1038D0002168C860204600F0CFFA2068006920F413
:1038E0009040216808612068406920F02A00216822
:1038F00048612068C06840F400502168C86000201A
:103900006064202084F8410084F842000020606355
:1039100000BFC8E710B586B00446002002900390AF
:10392000049005901A49206888422ED100BF19489A
:10393000806940F48040174988610846806900F436
:103940008040019000BF00BF00BF0846806940F082
:10395000040088610846806900F00400019000BFFF
:1039600000BF48150290022003900320059002A991
:103970000948FEF739FE4FF4806002900020039062
:10398000049002A90448FEF72FFE06B010BD000007
:103990000038014000100240000801402DE9F84FB6
:1039A00004460E46174699464FF0000A94F8410027
:1039B00020284AD106B117B90120BDE8F88F0020B0
:1039C0006064212084F84100FEF7BEFF8246A78490
:1039D000E784A068B0F5805F04D1206910B90025A4
:1039E000B04602E035464FF000081BE05346002287
:1039F00080212046CDF8009000F0BCFA08B10320E9
:103A0000DBE745B9B8F80000C0F30800216848605A
:103A100008F1020803E02878216848606D1CE08CFA
:103A2000401EE084E08C0028E0D153460022402173
:103A30002046CDF8009000F09DFA08B10320BCE7C5
:103A4000202084F841000020B7E70220B5E700BF3E
:103A5000FEE700BF0021084601F0DAF8022101204C
:103A600001F0D6F80221084601F0D2F84FF47A703E
:103A700001F03BF9EEE700000EB500200090019048
:103A800002902E482E49086081152D488160012141
:103A90000173002101754FF46021C16100202849A4
:103AA0004860062126480161FDF73EFC08B1FDF79C
:103AB000A0F90020009001200190002002906946AA
:103AC0001F48FDF729FA08B1FDF793F9012000908E
:103AD0000220019069461A48FDF71EFA08B1FDF769
:103AE00088F9022000900320019069461448FDF7F0
:103AF00013FA08B1FDF77DF903200090042001902E
:103B000069460F48FDF708FA08B1FDF772F904207D
:103B100000900520019069460948FDF7FDF908B1BC
:103B2000FDF767F9052000900620019069460448DA
:103B3000FDF7F2F908B1FDF75CF90EBD0024014074
:103B40004803002010B50D480D4908600820486062
:103B500000210B488160C1604FF480210161890020
:103B600041610021017641768176C1760177417706
:103B7000FEF773F908B1FDF73CF910BD0064004091
:103B8000BC03002008B500BF0A48406940F00100AE
:103B9000084948610846406900F00100009000BFF4
:103BA00000BF002205210B20FEF784FF0B20FEF74B
:103BB00071FF08BD0010024000B585B000200190E3
:103BC00002900390049000BF2548806940F01000E7
:103BD000234988610846806900F01000009000BF0A
:103BE00000BF00BF0846806940F0040088610846B5
:103BF000806900F00400009000BF00BF00BF0846CD
:103C0000806940F0080088610846806900F008007B
:103C1000009000BF00BF012207211248FEF78EFE70
:103C2000012240211048FEF789FE07200190012063
:103C30000290002003900320049001A90948FEF798
:103C4000D3FC40200190012002900020039003202B
:103C5000049001A90448FEF7C7FC05B000BD0000B0
:103C60000010024000100140000C014010B50E4849
:103C70000E4908604FF48270486000210B48816053
:103C8000C160016141614FF4007181611021C16126
:103C900000210162416281620A21C162FFF7F8FBE3
:103CA00008B1FDF7A6F810BD00300140E403002084
:103CB00010B50B480B4908604FF4E1304860002113
:103CC00008488160C16001610C214161002181616E
:103CD000C161FFF7E4FD08B1FDF78BF810BD0000EE
:103CE000003801403C04002000BFFEE700BFFEE7B3
:103CF00008B508490968C9084FF47A72B1FBF2F1B6
:103D00004143009100BF00BF00994A1E0092002964
:103D1000F9D108BD0C00002010B500BF502080F381
:103D20001188BFF34F8FBFF36F8F00BF02F0E4FB2A
:103D300018B14FF080500449086000BF002080F3A4
:103D4000118800BF10BD000004ED00E000B595B083
:103D500028210BA8FCF77DFA142106A8FCF779FAB4
:103D600018216846FCF775FA02200B9001200F908D
:103D70001020109002201290002113914FF4601136
:103D800014910BA8FFF752F908B1FDF732F80F2094
:103D9000069002200790002008904FF48060099060
:103DA00000200A90022106A8FEF7FAFF08B1FDF7ED
:103DB00020F802200090800302906846FEF758FF2A
:103DC00008B1FDF716F815B000BD704710B50248F0
:103DD000FFF78BFC10BD00008404002010B50268C2
:103DE000204B98420ED0204B98420BD0B0F1804F20
:103DF00008D01E4B984205D01D4B984202D01D4B57
:103E0000984203D122F070024B681A43154B984236
:103E10000ED0154B98420BD0B0F1804F08D0134B09
:103E2000984205D0124B984202D0124B984203D1CF
:103E300022F44072CB681A4322F080034C6943EAB3
:103E4000040202608B68C3620B688362054B984270
:103E500002D0054B984201D10B69036301234361F2
:103E600010BD0000002C014000340140000400405F
:103E700000080040000C004070B504462168096944
:103E800021F44051E2681143226811612269A1685E
:103E90001143626941EA02052168C96841F20C6276
:103EA000914329432268D1602168496921F4407116
:103EB000A2691143226851612D4A2168914202D1C1
:103EC000FFF76CF801E0FFF759F800EBC00101EBD8
:103ED000001162689200B1FBF2F100EBC00202EB4C
:103EE000001263689B00B2FBF3F26423B2FBF3F2AF
:103EF00002EBC20303EB0212A1EB8201322202EBBE
:103F000001116422B1FBF2F101F0F00100EBC002FB
:103F100002EB001263689B00B2FBF3F26423B2FB76
:103F2000F3F201EB021200EBC00101EB0011636838
:103F30009B00B1FBF3F100EBC00303EB00136668D9
:103F4000B600B3FBF6F36426B3FBF6F303EBC3064C
:103F500006EB0313A1EB8301322303EB011164236E
:103F6000B1FBF3F101F00F0111442268916070BDC3
:103F7000003801402DE9F04104460D4617469846A9
:103F8000069E34E0701C88B32EB1FEF7DDFCA0EB7A
:103F90000800B0422BD900BF00BF21680C3151E8A6
:103FA000001F21F4D07021680C3141E80002002A82
:103FB000F3D100BF00BF00BF2168143151E8001FDA
:103FC00021F001002168143141E80002002AF3D1F8
:103FD00000BF202084F8410084F8420000BF002088
:103FE00084F8400000BF0320BDE8F081FFE72068AF
:103FF00000682840A84201D1012000E00020B8421A
:10400000C0D00020F0E7000010B50248FDF7FEFD2B
:1040100010BD0000BC03002000BFFEE70FB41CB5BC
:104020000246002007AC00290BD0491ECDE9002133
:10403000054B6A462146069800F00CF9009A0021CB
:1040400011701CBC5DF814FB834900087CB5044664
:1040500000201D46164600290BD0491ECDE900411F
:10406000044B6A462946304600F0F4F8009A0021D5
:1040700011707CBD8349000802480068C0F302202B
:10408000704700000CED00E010B5002804DB0A07C3
:10409000130E054A135406E00A07140E034A00F0F3
:1040A0000F031B1FD45410BD00E400E018ED00E026
:1040B00002E008C8121F08C1002AFAD170477047F1
:1040C000002001E001C1121F002AFBD1704700004F
:1040D0002DE9FF5F82B00021DDE90430020DDDF83B
:1040E00040B0034318D044F61050A2F2FF324243CE
:1040F0001514119801281FD0A5EB0B00401C5FEA96
:10410000000A4FF000064E4FDFF83891B046504697
:1041100015D5CAF1000413E0119801244AA301281F
:1041200001D16FEA0B010298119AC0E90031C0E990
:10413000024206B0BDE8F09FCBF10000DFE7044685
:104140000021404A491842EB0450CDE9001012E02A
:10415000E00707D032463B4640464946FCF776FA30
:104160008046894632463B4610461946FCF76EFAB1
:1041700006460F466410002CEAD1DDE90401DDE9B2
:104180000023BAF1000F06DAFCF760FA42464B460C
:10419000FCF75CFA05E0FCF7CBFA42464B46FCF72D
:1041A000C7FA04460E460022284BFCF749FB03D809
:1041B0004FF0FF30014607E00022254B20463146F4
:1041C000FCF79DF9FCF723FB102409E0002C0ADB27
:1041D0000A220023FCF72BF9039B30321A55641E88
:1041E00050EA0102F2D1641C039AC4F11103144491
:1041F000119A012A03D0012208430DD10AE0084395
:1042000004D000204FF0110B119072E7A3EB0B05C7
:104210006D1E0DE05B4504DD4FF0000205F1010568
:1042200004E003DA4FF00002A5F10105002AECD00A
:1042300002981199C0E90231C0E9004579E7000010
:10424000000014400000F03F300000000000F04388
:104250000000E03F2DE9FF4F95B09B46894606469A
:1042600000250FE2252877D100242746F84A0121AE
:10427000059400E0044316F8013F203B01FA03F0E7
:104280001042F7D130782A2811D06FF02F03307800
:10429000A0F13002092A16D8059A44F0020402EB74
:1042A000820203EB42021044761C0590EFE759F8B6
:1042B000042B0592002A03DA504244F4005405907E
:1042C00044F00204761C30782E2816D116F8010F1F
:1042D00044F004042A280DD06FF02F023078A0F1AA
:1042E0003003092B09D807EB870302EB4303C718F8
:1042F000761CF3E759F8047B761C30786C280FD0D5
:1043000006DC4C2817D068280DD06A2814D104E0A8
:10431000742810D07A280FD10DE044F400140AE07C
:1043200044F4801401E044F440147278824202D1D3
:1043300004F58014761C761C307866280BD013DCCC
:10434000582877D009DC002875D04528F6D04628B3
:10435000F4D047281AD19DE118E0632835D06428AD
:1043600079D0652812D195E1702873D008DC6728D0
:10437000F1D069286FD06E280DD06F2806D1B5E036
:1043800073282CD0752875D0782874D05A46179980
:1043900090476D1C75E1C4F30250022809D0032830
:1043A0000DD0D9F8001004280DD00D6009F10409D2
:1043B00067E1D9F80010EA17C1E90052F6E7D9F829
:1043C00000100D80F2E70D70F0E719F8041B8DF86E
:1043D000001000208DF80100EA46012003E059F8A2
:1043E00004AB4FF0FF3061074FF0000102D40DE045
:1043F00008F101018846B9420FDA8045F8DB1AF866
:1044000008100029F4D108E008F101018846814232
:10441000FADB1AF808100029F6D105985B46A0EBE4
:10442000080721463846179A00F094FA284400EB12
:10443000080507E04DE029E10DE01AF8010B5A46A6
:1044400017999047B8F10108F7D25B4621463846E4
:10445000179A13E142E00A220092C4F302524FF08D
:10446000000A022A08D059F804CB032A4FEAEC715B
:104470000AD00DE029E02AE009F1070121F0070246
:10448000F2E802C1914609E00FFA8CFC4FEAEC71A8
:10449000042A03D14FFA8CFC4FEAEC71002907DAA9
:1044A0000A460021DCF1000C61EB02012D2202E042
:1044B000220504D52B228DF80420012203E0E20717
:1044C00001D02022F7E7904659E00A2102E01022AD
:1044D0000DE010214FF0000A00910BE010224FF088
:1044E000000A44F004040827009203E008224FF079
:1044F000000A0092C4F30252022A05D059F804CBF4
:104500000021032A08D009E009F1070121F0070280
:10451000F2E802C1914605E01FFA8CFC042A01D1A1
:104520000CF0FF0C4FF00008220728D5702806D0A9
:10453000009B83F0100353EA0A0305D00EE04022EB
:104540008DF80420012208E05CEA010206D0302246
:104550008DF804208DF8050002229046009B83F020
:10456000080353EA0A030AD15CEA010201D1620797
:1045700005D530228DF804204FF001087F1E582801
:1045800004D034A003900EA802900DE036A0F9E705
:1045900053466046009AFBF74AFF84460398825CC4
:1045A0000298401E029002705CEA0100F0D102986D
:1045B00006A9081A00F1200A600702D524F4803405
:1045C00000E00127574502DDA7EB0A0000E00020CC
:1045D00000EB0A01009005984144401A0590E00361
:1045E00006D45B462146179A059800F0B3F90544B6
:1045F000002706E001A85A46C05D179990476D1C38
:104600007F1C4745F6DBE0030CD55B462146179A35
:10461000059800F09FF9054404E030205A461799A8
:1046200090476D1C0099481E00900029F5DC08E0B9
:10463000029802995A460078491C029117999047AE
:104640006D1CBAF10001AAF1010AF1DC65E100007C
:104650000928010030313233343536373839616258
:10466000636465660000000030313233343536371C
:1046700038394142434445460000000000F058F9F3
:104680000544761C307800287FF4ECAD19B028463C
:10469000BDE8F08F620700D4062709F1070222F077
:1046A000070CFCE80223E14603F000485FEA080C2F
:1046B00002D00FF2702C0DE05FEA045C02D50FF21D
:1046C000682C07E05FEAC47C02D00FF2602C01E0A6
:1046D000AFF2700C4FF0FF3823F00043CDF850C01C
:1046E00065280CD006DC452809D046281DD047286F
:1046F0003DD13DE0662818D067287ED138E0002102
:10470000112F01DB112000E0781CCDE9000106A982
:104710000EA8FFF7DDFCDDE90F010E9A03910021E1
:10472000009207F1010A04914DE04FF0004000971C
:10473000CDE9011006A90EA8FFF7CAFCDDE90F02BA
:1047400003920E9B11990022DDF80CA000930492B5
:1047500011B9791C00EB010AB7EB0A0004D4C0F1CF
:10476000FF3007F1010A0490AAEB0700019044E032
:10477000012F00DA01270021112F01DD112000E0B7
:104780003846CDE9000106A90EA8FFF7A1FCDDE936
:104790000F010E9A0391002104910092BA4621075D
:1047A0000CD40399514500DA8A46BAF1010F05DDB0
:1047B000009AAAF10101515C302908D0B84202DA0E
:1047C00010F1040F06DA0121CDE9011015E0AAF17C
:1047D0000101E9E7002805DC049901440491AAEBF2
:1047E000000102E0411C514500DD8A460499401A4F
:1047F000401C01904FF000400290200704D4019823
:10480000504501DBCDF8048000208DF84F00029860
:104810000DF14F07B0F1004F25D02B200E900298DC
:104820004FF0020800280CDA404202902D200E9032
:1048300007E00A210298FBF7E4FD3031029007F807
:10484000011DB8F10001A8F10108F2DC029800286E
:10485000EFD1791E0E980870307800F0200040F0FB
:10486000450007F8020D12A8C01B00F107081498B4
:10487000007800B1012000EB0A01019801EBE07122
:1048800005984144401A401E0590E00306D45B465B
:104890002146179A059800F05DF8054414980078B1
:1048A00018B15A46179990476D1CE00324D55B4612
:1048B0002146179A059800F04DF805441CE004982D
:1048C000002807DBDDE90301884203DD0098405C36
:1048D000179901E0179930205A469047049805F13E
:1048E0000105401C04900198401E019004D12E2027
:1048F0005A46179990476D1CBAF10001AAF1010AB6
:10490000DDDC05E017F8010B5A46179990476D1C3E
:10491000B8F10001A8F10108F4DC5B462146179AC2
:104920000598ABE62D0000002B00000020000000E1
:104930002DE9F041044600251E461746880404D49C
:1049400005E039462020B0476D1C641EF9D5284685
:10495000BDE8F0812DE9F041044600251E46904651
:10496000C80301D5302700E02027880404D505E0DE
:1049700041463846B0476D1C641EF9D52846BDE84F
:10498000F0814A68002A06D00A68531C0B60107038
:104990004868401E486070472DE9F041044600F029
:1049A000DBF8804608492046FBF7B6FC07464FF087
:1049B0008B41FBF7E3FC06464FF08341FBF7ACFC71
:1049C00005462846BDE8F081333353401CB500202E
:1049D000012103464FF4C062CDE9001007A10A4847
:1049E00001F0ECFC0020012103464FF4C062CDE948
:1049F000001006A1084801F0E1FC1CBD7461736B56
:104A0000206C656400000000533A00087461736B09
:104A10002061646300000000610B000830B58BB0BA
:104A200004466069012800D021E0A069F0B90025A2
:104A300019E00695201D00EB05100068400101906B
:104A4000201D00EB0510406840010290201D00EB86
:104A50000510806840010390201D00EB0510C06820
:104A6000400104906D1CE069A842E2D800BF00BF7D
:104A700060690790A06908900020059001200990C6
:104A800000200A9001A90248FCF770FF0BB030BD6E
:104A9000BC03002010B50448FDF70FFB02210248BB
:104AA000FCF7AAFE10BD0000BC0300202DE9F04178
:104AB0000646354600BF502080F31188BFF34F8F64
:104AC000BFF36F8F00BF2148006808B9012000E0E4
:104AD000002000EB400202EB00101D4A02EB8001B7
:104AE0004C222846FBF79CFB002080F3118800BF76
:104AF000002427E005F11C0151F82400FBF77CFCA1
:104B00000746281D50F824103846FBF702FC291DE3
:104B100041F82400303151F82400FBF76DFC0746C2
:104B2000281D50F824103846FBF7F3FB291D41F8E7
:104B3000240051F824000749FBF720FC291D41F807
:104B40002400641C062CD5DBBDE8F081EC000020BD
:104B50003C4600200000F0410048704774000020EF
:104B60001FB500200090019002900390002400BF28
:104B700000BF00BF16E004EB4400154901EB8000C4
:104B800040880090012001900020029003200390B3
:104B900004EB44010E4A02EB810148686946FDF7C7
:104BA00023FD641C032CE6D300240EE004EB440236
:104BB000074B03EB8202518804EB440203EB8202B1
:104BC00050680022FDF7BAFE641C032CEED31FBD13
:104BD000C800002010B5FEF7EFFFFFF769F807A146
:104BE00008A000F0DFFCFFF7BBFFFEF7ABFFFCF710
:104BF000D3F8FFF73BF8FFF7E9FE10BD5B5379737D
:104C00005D000000707265706172696E670000007F
:104C100070B504460D4675B904EB4402164B03EB20
:104C20008202518804EB440203EB820250680022A6
:104C3000FDF784FE1FE0012D0ED104EB44020E4B64
:104C400003EB8202518804EB440203EB82025068BA
:104C50000122FDF773FE0EE0022D0CD104EB44029D
:104C6000054B03EB8202518804EB440203EB820202
:104C70005068FDF759FE70BDC80000202DE9F047CF
:104C8000064688461746354628684FF0FF3101F042
:104C900073FA05F10804002020606060D3202070C2
:104CA00084F8018027B13868C4F802003879A0710F
:104CB00007212046FBF7BCFFE071E8692A6A21461C
:104CC00090478146286800231A46194601F050F89B
:104CD0004846BDE8F087FDF749FEFFF737F8FFF7D4
:104CE00079FF00F00EF800BFFEE770B504462546D8
:104CF0000DB1294600E00121084600F0C5FD002065
:104D000070BD10B500F096FE002010BD2DE9F047F3
:104D100006460C462546B04607212046FBF788FF8D
:104D200007462878D32803D04FF0FF30BDE8F0873E
:104D3000E879B84208D0EB793A4607A108A000F01C
:104D400031FC6FF00100F1E7D8F8242021464046FD
:104D5000904781464846E9E75B5379735D00000060
:104D6000637263206572723A202578202D202578A1
:104D70000A00000070B505460E46302000F052FBD8
:104D8000044630212046FBF764FA0322002101206B
:104D900000F072FF2060206828B1206800231A46C6
:104DA000194600F0E5FF2662656214206060034842
:104DB000A0620348E062204670BD00007D4C000800
:104DC0000D4D00082DE9F04105460C4626462F46BC
:104DD0007078032800D005E0BB6A044A03213846F6
:104DE000984700BF00BF7078BDE8F08195000020B3
:104DF0002DE9F04105460E461C4807681C4800682E
:104E0000001D00F009FC50B91948006890F82C10FA
:104E10000120884017490968814316480160681CD1
:104E200038B936B112480168091D134800F03EFC3C
:104E30001AE07C190E4800684460BC4207D20C4856
:104E40000168091D0D48006800F016FC0CE00848D8
:104E50000168091D0A48006800F00EFC0948006856
:104E6000844201D207480460BDE8F081240000209C
:104E70001000002028000020A805002018000020B5
:104E8000140000204000002010B5044600F01AFC79
:104E900023480068401C224908602248006840B945
:104EA000204804600846006801280DD100F0AAF9E6
:104EB0000AE01D48006838B91A480068C06AE16A0B
:104EC000884201D81748046018480068401C1749F8
:104ED000086094F82C10012088401549096808439F
:104EE00013490860E16A01EB8101124A02EB81007B
:104EF000211D00F0DBFB00F00FFC0B48006868B1DF
:104F000008480068C06AE16A884207D24FF08050C2
:104F100009490860BFF34F8FBFF36F8F10BD0000CA
:104F200020000020100000202C0000203C00002069
:104F300028000020CC04002004ED00E010B516E0AD
:104F400000F0C0FB0C48C068C468201D00F064FB82
:104F50000A480068401E0949086009480068401E68
:104F60000749086000F0D8FB204600F05EF80448CE
:104F700000680028E4D110BD940500202000002026
:104F80001C00002070B504460D46206C70B1216CE9
:104F9000E0680844E0606168E068884201D3206806
:104FA000E0602846226CE168FBF73AF970BD2DE914
:104FB000F04104460F4615464FF00008A66B206CE2
:104FC00040B9206860BB606801F03AFB8046002071
:104FD000606025E07DB93946226CA068FBF720F9B6
:104FE000216CA0680844A060D4E90110884217D35E
:104FF0002068A06014E03946226CE068FBF710F9E5
:10500000216CE068401AE0602168E068884203D2C1
:10501000216C6068401AE060022D01D106B1761E55
:10502000701CA0634046BDE8F08110B5044694F8BA
:10503000510030B9206B00F08DFB204600F08AFB58
:105040001AE094F85100012803D1204600F082FBB9
:1050500012E094F85100022801D1012000E0002064
:1050600050B900BF502080F31188BFF34F8FBFF3BA
:105070006F8F00BF00BFFEE710BD01464A6A22B134
:105080000A6B1268C2F1070000E0002070470000C0
:1050900030B54FF47053174800F007042CB1C01D11
:1050A00020F00700134C041B1B1B0246124C22600D
:1050B0000024114D6C60D018083820F007000F4C08
:1050C000206000240D4D2D686C600C4D2D682C6007
:1050D0001146441A4C60094C24680C60084D4C6819
:1050E0002C60084D4C682C604FF00044064D2C603D
:1050F00030BD0000BC0500204C0000205400002002
:105100005C000020580000206000002000BFFFF776
:1051100015FF064800680128F9D94FF0805004496E
:105120000860BFF34F8FBFF36F8FF0E7CC04002010
:1051300004ED00E02DE9F04106460D46174698467D
:10514000069C0DB9246000E02760E6632564012118
:10515000204600F0C1FDBDE8F0812DE9FF5F8146EA
:105160000F469246DDE90E6B109CAAF10100216BFF
:1051700001EB800828F0070808F0070008B90120B3
:1051800000E0002050B900BF502080F31188BFF329
:105190004F8FBFF36F8F00BF00BFFEE7002507E012
:1051A000795D04F134004155785D00B902E06D1C71
:1051B000102DF5D300BF002143200155072E00D349
:1051C0000626E66266640020A064201D00F051FA05
:1051D00004F1180000F04DFA2461C6F10700A06147
:1051E00064620020E06484F8500049464046039A17
:1051F00000F0C6F92060BBF1000F01D0CBF80040F1
:10520000BDE8FF9F10B5002407E004EB84010F4ABE
:1052100002EB810000F020FA641C072CF5D30C4847
:1052200000F01AFA0B4800F017FA0B4800F014FAD5
:105230000A4800F011FA0A4800F00EFA0448094939
:10524000086004480849086010BD0000CC04002034
:10525000580500206C0500208005002094050020E2
:10526000A8050020140000201800002010B50146F9
:10527000164800E0006803688B42FBD3024643688F
:1052800013448B4204D143684C6823444360014675
:105290000A464B6813440468A34211D10C4C0368BE
:1052A0002468A34208D04B680468646823444B60B8
:1052B00003681B680B6005E0054B1B680B6001E091
:1052C00003680B60884200D0016010BD4C000020D4
:1052D0005400002070B5054600F0F4F9A86B08B939
:1052E000012400E0002400F017FA204670BD70B5DC
:1052F000054600F0E7F9A86BE96B884201D101246B
:1053000000E0002400F008FA204670BD0A49096850
:10531000096809B9012100E0002121B14FF0FF31F6
:10532000064A116006E004490968C968C868034A6A
:105330004168116070470000140000204000002008
:105340000E480068401C08B9012000E0002050B958
:1053500000BF502080F31188BFF34F8FBFF36F8FD2
:1053600000BF00BFFEE700BF502080F31188BFF3ED
:105370004F8FBFF36F8F00BF00BFFEE764000020B8
:1053800070B5044600F09EF994F9455010E0606A4B
:1053900008B9012000E0002038B904F1240001F030
:1053A00017FA18B100F0AAFA00E003E0681E45B24F
:1053B000002DECDC00BFFF2084F8450000F0ACF9C4
:1053C00000F080F994F9445010E0206908B90120F8
:1053D00000E0002048B904F1100001F0F9F908B12B
:1053E00000F08CFA681E45B200E001E0002DECDC14
:1053F00000BFFF2084F8440000F08EF970BD00006B
:1054000010B504460648006800B910BD00231A46CE
:1054100021460348006800F07FFD00BFF5E700006B
:10542000700000202DE9F04104464FF0000800F024
:1054300059FB4648006808B9FFF72AFE444800684F
:10544000204000286BD1D4B1083404F00700B0B17B
:1054500004F00700C0F10800044404F0070008B994
:10546000012000E0002050B900BF502080F31188D7
:10547000BFF34F8FBFF36F8F00BF00BFFEE7002C5D
:105480004DD034480068844249D8334E30460568D0
:1054900001E02E462D686868A04202D228680028E4
:1054A000F7D12A480068854239D0306800F10808F1
:1054B000286830606868001B102819D92F1907F078
:1054C000070008B9012000E0002050B900BF5020BB
:1054D00080F31188BFF34F8FBFF36F8F00BF00BF02
:1054E000FEE76868001B78606C603846FFF7BEFE18
:1054F000184968680968081A16490860084600686B
:1055000016490968884203D21248006813490860A6
:105510000F4968680968084368600020286001F046
:10552000A3F908F0070008B9012000E0002050B9F5
:1055300000BF502080F31188BFF34F8FBFF36F8FF0
:1055400000BF00BFFEE74046BDE8F08154000020E8
:1055500060000020580000204C0000205C0000206B
:105560000648006830B10549096801F14800896CB6
:10557000491C0160014800687047000010000020CD
:10558000001F4FF080730360001F21F001030360D0
:10559000001F034B0360143802602038704700007E
:1055A000415300080FB438B505461748006810B1DC
:1055B00038BC5DF814FB01201349086006A8009070
:1055C0004FF480611148FAF744FE11A24FF4806154
:1055D0000E48059BFEF722FD84B2C4F580610B4A9C
:1055E00010192A46009BFEF731FD204484B24FF08B
:1055F000FF33224605490748FEF7D0F90020009006
:105600000149086000BFD3E7C400002030420020F9
:10561000257300003C04002001460A69D1E90130ED
:105620009860D1E9010358605068884201D18868C8
:105630005060002008611068401E106010687047BC
:10564000034B0360034B0B60802313607047000023
:10565000F40000204801002000F1080141604FF0F3
:10566000FF31816000F10801C1600161002101602A
:10567000704700210161704710B502460B685C1C41
:105680000CB9106907E002F1080000E040684468C6
:1056900024689C42FAD944684C604C68A1608860D8
:1056A00041600A611468641C146010BD42684A605D
:1056B00093688B60936859609160086103685B1C14
:1056C0000360704700BF502080F31188BFF34F8FF5
:1056D000BFF36F8F00BF0E480068401C0C49086084
:1056E00008460068012812D10A480068C0B208B90B
:1056F000012000E0002050B900BF502080F3118845
:10570000BFF34F8FBFF36F8F00BF00BFFEE770473F
:105710006400002004ED00E00D48006850B900BFAF
:10572000502080F31188BFF34F8FBFF36F8F00BFFE
:1057300000BFFEE706480068401E054908600846AD
:10574000006820B9002080F3118800BF00BF7047B7
:105750006400002070B506463546002E3FD0083D57
:105760002C461F4960680968084008B1012000E024
:10577000002050B900BF502080F31188BFF34F8F35
:10578000BFF36F8F00BF00BFFEE7206808B901209C
:1057900000E0002050B900BF502080F31188BFF313
:1057A0004F8FBFF36F8F00BF00BFFEE70C496068EB
:1057B0000968084098B1206888B909496068096893
:1057C0008843606000F08EF9064960680968084403
:1057D000044908602046FFF749FD01F045F870BD17
:1057E000600000205800002000204FF0E0210861F8
:1057F0008861064800684FF47A71B0FBF1F0401EF2
:105800004FF0E02148610720086170470C0000203C
:1058100070B5FAF7DFFC0446102C16D304F1E02033
:1058200090F8F05315480078854201DB012000E034
:10583000002050B900BF502080F31188BFF34F8F74
:10584000BFF36F8F00BF00BFFEE70D48006800F494
:10585000E0600C490968884201D8012000E000207E
:1058600050B900BF502080F31188BFF34F8FBFF3B2
:105870006F8F00BF00BFFEE770BD00006800002012
:105880000CED00E06C00002070B504460025D4B19A
:105890001248006808B9012000E0002050B900BF9C
:1058A000502080F31188BFF34F8FBFF36F8F00BF7D
:1058B00000BFFEE700F016F900212046FFF798FA36
:1058C00000F0D2FF05463DB94FF080500449086012
:1058D000BFF34F8FBFF36F8F70BD000048000020F3
:1058E00004ED00E00349096801600349096841606B
:1058F00070470000380000202400002001200149EA
:10590000086070473400002070B504460D4654B955
:1059100000BF502080F31188BFF34F8FBFF36F8F0C
:1059200000BF00BFFEE70548016818312046FFF7B9
:10593000A3FE01212846FFF75BFA70BD100000208E
:105940002DE9F04706460F4634464FF00109002E78
:1059500067D0A06C50B900BF502080F31188BFF30E
:105960004F8FBFF36F8F00BF00BFFEE7606CB84280
:1059700001D23D4600E0656CE06AA84251D0A06CBF
:1059800001284ED128480068844201D0012000E05F
:10599000002050B900BF502080F31188BFF34F8F13
:1059A000BFF36F8F00BF00BFFEE7D4F82C80E56225
:1059B000A06900F0004010B9C5F10700A06108EB34
:1059C00088011A4A02EB81016069884201D10120F5
:1059D00000E0002028B3201DFFF71EFE78B9E06A22
:1059E00000EB8000114951F8200040B994F82C10C8
:1059F000012088400E49096881430D48016094F8F0
:105A00002C10012088400A490968084308490860A9
:105A1000E16A01EB8101054A02EB8100211DFFF7DC
:105A200045FEBDE8F087000010000020CC040020F7
:105A30002800002010B586B000200590049003AA2D
:105A400004A905A8FFF7FCFD0022DDE904101346B8
:105A5000CDE9002102901CA11D48039A00F0E0FC52
:105A60001C4908600846006808B1012400E00024D1
:105A7000012C15D100BF502080F31188BFF34F8F48
:105A8000BFF36F8F00BF4FF0FF3013490860012054
:105A90001249086000201249086000F071F810E017
:105AA000601C08B1012000E0002050B900BF502068
:105AB00080F31188BFF34F8FBFF36F8F00BF00BF1C
:105AC000FEE706B010BD000049444C450000000050
:105AD0000D51000844000020400000202C00002050
